:10C0000031400004B01262C0B0129CC00A120B1280
:10C010000A4C0B430D3CF24329003C40C800B012CF
:10C0200086C0C24329003C40C800B01286C01B53E2
:10C030000B9AF13B3B413A4130410A120B127A40D4
:10C0400080000B43093CC24A290012C34A103C40FD
:10C05000C800B01286C01B533B92F53B3B413A41AE
:10C060003041B240805A2001F2432A00C2432E00E0
:10C070003C400500B0120CC0B0123AC03C40F40184
:10C08000B01286C0F93F0F43063C003C3E401F0003
:10C090003E53FE2F1F530F9CF83B30413040A0C051
:06C0A0003040A4C0FF3F88
:02FFFE0000C041
:00C000013F
:00000001FF
