:10C00000C0F9A4B0999282F88090004080C031407D
:10C0100000043C400E023D400800B01200C23C400B
:10C0200000023D4000C03E400E00B01232C2B012CD
:10C0300036C0B0122EC2B240805A2001C243560010
:10C04000D242FF105700D242FE105600C2432600D3
:10C05000F240F0002200F2400F002700F2432100DE
:10C06000C2432E00F2432A00B24010026001B240E7
:10C0700010006201B2408813720132D2B2406000F7
:10C08000B201B2403038B0011C421002B012AEC052
:10C090003C400300B01258C1824C10021C421002F6
:10C0A000B012AEC03C406400B012D8C1F13F0A12D9
:10C0B0000A4C3E400A000C4AB01290C1C24E150212
:10C0C0000C4A3E400A00B01290C10A4C3E400A00A1
:10C0D0000C4AB01290C1C24E14020C4A3E400A00F3
:10C0E000B01290C10A4C3E400A000C4AB01290C1F6
:10C0F000C24E13020C4A3E400A00B01290C10A4CD4
:10C100003E400A000C4AB01290C1C24E12023A419F
:10C1100030411F420E025F4F12024F4FD24F0002BA
:10C1200029001F420E02D2DF0A022100003C3F40DC
:10C130004B013F53FE2FF24329001F420E02D2CF84
:10C140000A022100B29003000E02032082430E0275
:10C15000304192530E0230410F4C1C430E12C14F1E
:10C1600000003E41B0121EC2C2DC4A004F5F4F5F6A
:10C170004F5F4F5F3FF0FF008F1082DFB201B2D000
:10C180000300B001A2B2B001FD2B1C42B40130414A
:10C19000091209430E9303343EE31E5319D30C9343
:10C1A00003343CE31C5339E3B012C0C119B3022479
:10C1B0003CE31C5329B302243EE31E533941304172
:10C1C0000F4E0D4C0E431C430D5D0E6E0E9F01284D
:10C1D0000E8F0C6CF92B30410F43063C003C3E4067
:10C1E0004B013E53FE2F1F530F9CF83B30410F4C29
:10C1F000043CFF4D00001F533E530E93FA23304181
:10C200000D5C033CCC4300001C530C9DFB233041D0
:10C210000F120E12B01212C13E413F4100134E9355
:10C2200003240C5C5E83FD233041304036C2304035
:08C230002AC23040EEC1FF3FBD
:02FFF20010C23B
:02FFFE000EC033
:00C00E0131
:00000001FF
