:10C00000C0F9A4B0999282F88090004080C031407D
:10C0100000043C400E023D400C00B01226C23C40E1
:10C0200000023D4000C03E400E00B0124CC2B012B3
:10C0300036C0B01248C2B240805A2001C2435600F6
:10C04000D242FF105700D242FE105600F240F000DC
:10C050002200F2400F002700F2432100C2432E00CD
:10C06000F2432A00B24010026001B24010006201A7
:10C07000B2408813720132D2023C82431202D2B320
:10C080002000062C3C402C01B012FEC19243140249
:10C09000E2B32000062C824314023C402C01B01273
:10C0A000FEC1E2B22000092C82431002924210022B
:10C0B00012023C402C01B012FEC11C4212020C5C68
:10C0C0000C5C0F4C0C5C0C5C0C5C0F5C0C5C0C5F37
:10C0D0001C521002B0120CC13C400A00B012FEC14A
:10C0E00082931402CC27B29063001002033882437B
:10C0F0001002023C9253100282931002C023B290AD
:10C1000063001202BA3792531202B93F0A120A4C64
:10C110003E400A000C4AB012B6C1C24E19020C4A87
:10C120003E400A00B012B6C10A4C3E400A000C4A1A
:10C13000B012B6C1C24E18020C4A3E400A00B012FC
:10C14000B6C10A4C3E400A000C4AB012B6C1C24EFB
:10C1500017020C4A3E400A00B012B6C10A4C3E40DB
:10C160000A000C4AB012B6C1C24E16023A41304122
:10C170001F420E025F4F16024F4FD24F000229009E
:10C180001F420E02D2DF0A022100003C3F404B0159
:10C190003F53FE2FF24329001F420E02D2CF0A0264
:10C1A0002100B29003000E02032082430E023041B0
:10C1B00092530E023041091209430E9303343EE3B9
:10C1C0001E5319D30C9303343CE31C5339E3B012D0
:10C1D000E6C119B302243CE31C5329B302243EE315
:10C1E0001E53394130410F4E0D4C0E431C430D5D23
:10C1F0000E6E0E9F01280E8F0C6CF92B30410F43F1
:10C20000063C003C3E404B013E53FE2F1F530F9C0B
:10C21000F83B30410F4C043CFF4D00001F533E5390
:10C220000E93FA2330410D5C033CCC4300001C53B9
:10C230000C9DFB2330410F120E12B01270C13E4113
:10C240003F410013304050C2304044C2304014C21D
:02C25000FF3FAE
:02FFF20036C215
:02FFFE000EC033
:00C00E0131
:00000001FF
