:10C00000C0F9A4B0999282F88090004080C031407D
:10C0100000043C400E023D400C00B01230C23C40D7
:10C0200000023D4000C03E400E00B01256C2B012A9
:10C0300036C0B01252C2B240805A2001C2435600EC
:10C04000D242FF105700D242FE105600F240F000DC
:10C050002200F2400F002700F2432100C2432E00CD
:10C06000F2432A00B24010026001B24010006201A7
:10C07000B2408813720132D21C421002B01216C1B3
:10C080000C3C824310021C421002B01216C13C400C
:10C090000500B01208C292531202D2B32000082C3D
:10C0A0003C402C01B01208C2824314029253100289
:10C0B000E2B32000082C3C402C01B01208C282439D
:10C0C0001402B2531002E2B22000062C3C40F401EC
:10C0D000B01208C292431402F2B22000062C3C4077
:10C0E000F401B01208C2A2431402B290C8001202B6
:10C0F000CA3B824312021F4214021F8303241F8380
:10C100000424C13F92531002BE3F92931002B93BE8
:10C11000B2531002B83F0A120A4C3E400A000C4AC1
:10C12000B012C0C1C24E19020C4A3E400A00B01201
:10C13000C0C10A4C3E400A000C4AB012C0C1C24EF7
:10C1400018020C4A3E400A00B012C0C10A4C3E40E0
:10C150000A000C4AB012C0C1C24E17020C4A3E403F
:10C160000A00B012C0C10A4C3E400A000C4AB0128C
:10C17000C0C1C24E16023A4130411F420E025F4F0B
:10C1800016024F4FD24F000229001F420E02D2DF8B
:10C190000A022100003C3F404B013F53FE2FF24377
:10C1A00029001F420E02D2CF0A022100B2900300E2
:10C1B0000E02032082430E02304192530E023041A0
:10C1C000091209430E9303343EE31E5319D30C9313
:10C1D00003343CE31C5339E3B012F0C119B3022419
:10C1E0003CE31C5329B302243EE31E533941304142
:10C1F0000F4E0D4C0E431C430D5D0E6E0E9F01281D
:10C200000E8F0C6CF92B30410F43063C003C3E4036
:10C210004B013E53FE2F1F530F9CF83B30410F4CF8
:10C22000043CFF4D00001F533E530E93FA23304150
:10C230000D5C033CCC4300001C530C9DFB233041A0
:10C240000F120E12B0127AC13E413F41001330402E
:0CC250005AC230404EC230401EC2FF3FB8
:02FFF20040C20B
:02FFFE000EC033
:00C00E0131
:00000001FF
