:10C00000C0F9A4B0999282F88090004080C031407D
:10C0100000043C400E023D400800B0125EC23C40AD
:10C0200000023D4000C03E400E00B01290C2B0126F
:10C0300036C0B0128CC2B240805A2001C2435600B2
:10C04000D242FF105700D242FE105600F240F000DC
:10C050002200F2400F002700F2432100C2432E00CD
:10C06000F2432A00B24010026001B24010006201A7
:10C07000B2408813720132D2B2406000B201B240C5
:10C080003038B0011C421002B0120CC1D2B32000F3
:10C090000A2C3C406400B01236C23C400A00B01288
:10C0A000B6C1824C1002E2B32000222C3C40640056
:10C0B000B01236C23C400A00B012B6C1824C100227
:10C0C0001C4210023C505FFD0F4C0C5C0F5C0C5C82
:10C0D0000F5C0C5C0C5C0C5C0F5C0C5C0C5C0F5C17
:10C0E0000C5C0C5F3E400004B012EEC1824C1002AA
:10C0F000E2B22000062C3C406400B01236C28243FB
:10C1000010021C421002B0120CC1C03F0A120A4CAD
:10C110003E400A000C4AB012EEC1C24E15020C4A53
:10C120003E400A00B012EEC10A4C3E400A000C4AE2
:10C13000B012EEC1C24E14020C4A3E400A00B012C8
:10C14000EEC10A4C3E400A000C4AB012EEC1C24E8B
:10C1500013020C4A3E400A00B012EEC10A4C3E40A7
:10C160000A000C4AB012EEC1C24E12023A413041EE
:10C170001F420E025F4F12024F4FD24F00022900A2
:10C180001F420E02D2DF0A022100003C3F404B0159
:10C190003F53FE2FF24329001F420E02D2CF0A0264
:10C1A0002100B29003000E02032082430E023041B0
:10C1B00092530E0230410F4C1C430E12C14F00002F
:10C1C0003E41B0127CC2C2DC4A004F5F4F5F4F5FFE
:10C1D0004F5F3FF0FF008F1082DFB201B2D003004B
:10C1E000B001A2B2B001FD2B1C42B40130410912D2
:10C1F00009430E9303343EE31E5319D30C930334C7
:10C200003CE31C5339E3B0121EC219B302243CE3D1
:10C210001C5329B302243EE31E53394130410F4ED3
:10C220000D4C0E431C430D5D0E6E0E9F01280E8FAC
:10C230000C6CF92B30410F43063C003C3E404B0157
:10C240003E53FE2F1F530F9CF83B30410F4C043CD4
:10C25000FF4D00001F533E530E93FA2330410D5CF7
:10C26000033CCC4300001C530C9DFB2330410F12B8
:10C270000E12B01270C13E413F4100134E93032491
:10C280000C5C5E83FD233041304094C2304088C254
:06C2900030404CC2FF3FEC
:02FFF2006EC2DD
:02FFFE000EC033
:00C00E0131
:00000001FF
