:10C00000C0F9A4B0999282F88090004080C031407D
:10C0100000043C400E023D400800B012E6C13C4026
:10C0200000023D4000C03E400E00B0120CC2B012F3
:10C0300036C0B01208C2B240805A2001C243560036
:10C04000D242FF105700D242FE105600F240F000DC
:10C050002200F2400F002700F2432100C2432E00CD
:10C06000F2432A00B24010026001B24010006201A7
:10C07000B2408813720132D21C421002B012CCC0FE
:10C08000133C824310023C402C01B012BEC1E2B20C
:10C090002000062C824310023C402C01B012BEC18D
:10C0A0001C421002B012CCC0D2B32000062C925316
:10C0B00010023C402C01B012BEC1E2B32000E72FB9
:10C0C00092931002DE3BB2531002DD3F0A120A4C7B
:10C0D0003E400A000C4AB01276C1C24E15020C4A0C
:10C0E0003E400A00B01276C10A4C3E400A000C4A9B
:10C0F000B01276C1C24E14020C4A3E400A00B01281
:10C1000076C10A4C3E400A000C4AB01276C1C24EBB
:10C1100013020C4A3E400A00B01276C10A4C3E405F
:10C120000A000C4AB01276C1C24E12023A413041A6
:10C130001F420E025F4F12024F4FD24F00022900E2
:10C140001F420E02D2DF0A022100003C3F404B0199
:10C150003F53FE2FF24329001F420E02D2CF0A02A4
:10C160002100B29003000E02032082430E023041F0
:10C1700092530E023041091209430E9303343EE3F9
:10C180001E5319D30C9303343CE31C5339E3B01210
:10C19000A6C119B302243CE31C5329B302243EE395
:10C1A0001E53394130410F4E0D4C0E431C430D5D63
:10C1B0000E6E0E9F01280E8F0C6CF92B30410F4331
:10C1C000063C003C3E404B013E53FE2F1F530F9C4C
:10C1D000F83B30410F4C043CFF4D00001F533E53D1
:10C1E0000E93FA2330410D5C033CCC4300001C53FA
:10C1F0000C9DFB2330410F120E12B01230C13E4194
:10C200003F410013304010C2304004C23040D4C11E
:02C21000FF3FEE
:02FFF200F6C156
:02FFFE000EC033
:00C00E0131
:00000001FF
