:10C0000031400004B0120CC0B012ACC0B240805A33
:10C010002001F24010002200F2D00F002700F2D0E1
:10C020000F002100F2432A00C2432E003C400500CD
:10C03000B01268C0D2B32000022CD2432900E2B370
:10C040002000022CE2432900E2B22000032CF2403F
:10C0500003002900F2B22000022CE24229003C40F9
:10C06000C800B01296C0E63F0A120B120A4C0B43EE
:10C070000D3CF24329003C40C800B01296C0C243B8
:10C0800029003C40C800B01296C01B530B9AF13BEC
:10C090003B413A4130410F43063C003C3E401F00CB
:10C0A0003E53FE2F1F530F9CF83B30413040B0C031
:06C0B0003040B4C0FF3F68
:02FFFE0000C041
:00C000013F
:00000001FF
